{
  "contractName": "ApprovalContract",
  "abi": [
    {
      "inputs": [],
      "payable": false,
      "stateMutability": "nonpayable",
      "type": "constructor"
    },
    {
      "constant": true,
      "inputs": [],
      "name": "approver",
      "outputs": [
        {
          "internalType": "address",
          "name": "",
          "type": "address"
        }
      ],
      "payable": false,
      "stateMutability": "view",
      "type": "function"
    },
    {
      "constant": true,
      "inputs": [],
      "name": "receiver",
      "outputs": [
        {
          "internalType": "address payable",
          "name": "",
          "type": "address"
        }
      ],
      "payable": false,
      "stateMutability": "view",
      "type": "function"
    },
    {
      "constant": true,
      "inputs": [],
      "name": "sender",
      "outputs": [
        {
          "internalType": "address",
          "name": "",
          "type": "address"
        }
      ],
      "payable": false,
      "stateMutability": "view",
      "type": "function"
    },
    {
      "constant": false,
      "inputs": [
        {
          "internalType": "address payable",
          "name": "_receiver",
          "type": "address"
        }
      ],
      "name": "deposit",
      "outputs": [],
      "payable": true,
      "stateMutability": "payable",
      "type": "function"
    },
    {
      "constant": true,
      "inputs": [],
      "name": "viewApprover",
      "outputs": [
        {
          "internalType": "address",
          "name": "",
          "type": "address"
        }
      ],
      "payable": false,
      "stateMutability": "pure",
      "type": "function"
    },
    {
      "constant": false,
      "inputs": [],
      "name": "approve",
      "outputs": [],
      "payable": false,
      "stateMutability": "nonpayable",
      "type": "function"
    }
  ],
  "bytecode": "0x608060405234801561001057600080fd5b5061040d806100206000396000f3fe6080604052600436106100555760003560e01c806312424e3f1461005a578063141a8dd81461007157806367e404ce146100c8578063d93ce89c1461011f578063f340fa0114610176578063f7260d3e146101ba575b600080fd5b34801561006657600080fd5b5061006f610211565b005b34801561007d57600080fd5b506100866102c8565b604051808273ffffffffffffffffffffffffffffffffffffffff1673ffffffffffffffffffffffffffffffffffffffff16815260200191505060405180910390f35b3480156100d457600080fd5b506100dd6102e0565b604051808273ffffffffffffffffffffffffffffffffffffffff1673ffffffffffffffffffffffffffffffffffffffff16815260200191505060405180910390f35b34801561012b57600080fd5b50610134610305565b604051808273ffffffffffffffffffffffffffffffffffffffff1673ffffffffffffffffffffffffffffffffffffffff16815260200191505060405180910390f35b6101b86004803603602081101561018c57600080fd5b81019080803573ffffffffffffffffffffffffffffffffffffffff169060200190929190505050610321565b005b3480156101c657600080fd5b506101cf6103b2565b604051808273ffffffffffffffffffffffffffffffffffffffff1673ffffffffffffffffffffffffffffffffffffffff16815260200191505060405180910390f35b73c5fdf4076b8f3a5357c5e395ab970b5b54098fef73ffffffffffffffffffffffffffffffffffffffff163373ffffffffffffffffffffffffffffffffffffffff161461025d57600080fd5b600160009054906101000a900473ffffffffffffffffffffffffffffffffffffffff1673ffffffffffffffffffffffffffffffffffffffff166108fc479081150290604051600060405180830381858888f193505050501580156102c5573d6000803e3d6000fd5b50565b73c5fdf4076b8f3a5357c5e395ab970b5b54098fef81565b6000809054906101000a900473ffffffffffffffffffffffffffffffffffffffff1681565b600073c5fdf4076b8f3a5357c5e395ab970b5b54098fef905090565b6000341161032e57600080fd5b336000806101000a81548173ffffffffffffffffffffffffffffffffffffffff021916908373ffffffffffffffffffffffffffffffffffffffff16021790555080600160006101000a81548173ffffffffffffffffffffffffffffffffffffffff021916908373ffffffffffffffffffffffffffffffffffffffff16021790555050565b600160009054906101000a900473ffffffffffffffffffffffffffffffffffffffff168156fea265627a7a72315820be089c671e00332f2ebd265098080d95f1fdd5a218dea91744d5e9382e4a2c6464736f6c63430005100032",
  "source": "pragma solidity ^0.5.0;\n\ncontract ApprovalContract {\n\n  address public sender;\n  address payable public receiver;\n  address constant public approver = 0xC5fdf4076b8F3A5357c5E395ab970B5B54098Fef;\n\n  constructor() public {\n    // tbd\n  }\n\n  function deposit(address payable _receiver) external payable {\n    require(msg.value > 0);\n    sender = msg.sender;\n    receiver = _receiver;\n  }\n\n  function viewApprover() external pure returns(address) {\n    return(approver);\n  }\n\n  function approve() external {\n    require(msg.sender == approver);\n    receiver.transfer(address(this).balance);\n  }\n\n}\n",
  "sourcePath": "C:\\Users\\Marina\\Downloads\\Ex_Files_Ethereum_DApps_Upd\\Ex_Files_Ethereum_DApps_Upd\\Exercise Files\\final\\contract\\contracts\\ApprovalContract.sol",
  "compiler": {
    "name": "solc",
    "version": "0.5.16+commit.9c3226ce.Emscripten.clang"
  },
  "schemaVersion": "3.4.5",
  "updatedAt": "2022-02-20T18:24:04.871Z",
  "networkType": "ethereum",
  "devdoc": {
    "methods": {}
  },
  "userdoc": {
    "methods": {}
  }
}